:100000004BC042C264C063C062C061C060C05FC018
:100010005EC05DC05CC05BC05AC059C058C005011D
:100020000906A101050719E029E715002501750159
:1000300095088102950175082565190029658100DB
:10004000C009022200010100801909040000010317
:10005000000000092101010001222300070581039E
:1000600008000A1201100100000008424231E100BC
:1000700001010200010C0375004400750063006B70
:100080000012037000680069006B0073006800755F
:10009000006E00040309040011241FBECFE5D1E067
:1000A000DEBFCDBF10E0A0E6B0E0E8EBFBE002C0B1
:1000B00005900D92AC3BB107D9F721E0ACEBB0E075
:1000C00001C01D92A130B207E1F73BD373C598CFB1
:1000D000FC0188EC90E09093E6008093E50080813D
:1000E00080768032E9F48181813059F48091C600B4
:1000F0008F5F8093C6001092C8001092C90082E002
:100100000895823041F487EC90E09093E60080936C
:10011000E50081E008958A3019F483818093C70057
:1001200080E00895DF92EF92FF920F931F93CF9399
:10013000DF93C8E0D0E0F12C80E8E82EDE2CDF0C65
:10014000D1BE8FD18C01043389E018070CF4FD2C4B
:10015000E6942197209791F78FEF8F0D81BFCF2DD8
:10016000D0E0219681B790E0C817D9078CF079D1FB
:100170008453994097FF03C0919581959109801709
:10018000910714F4F1B68C0181B78F5F81BFEACF7C
:10019000F1BE61B780E090E0DF91CF911F910F91A8
:1001A000FF90EF90DF9038C4CF93C62F2091B4001A
:1001B00024FF0BC02091D70038E823272093D700D5
:1001C000FC01A8EDB0E08C2F04C02AE52093B40018
:1001D000F7CF815018F091919D93FBCF6C2F88ED54
:1001E00090E03BD1CC5FC093B400CF910895CF9302
:1001F000DF938091E70018160CF0AEC09091E400F8
:100200002091E3002D3219F090E880E09FC02AE5AC
:100210002093B5008B30C1F7CCE0D0E0C91BD109E9
:10022000C551DF4F8881807609F081C01092D500DA
:10023000898181110BC01092D60085ED90E09093DA
:10024000E6008093E50090E882E079C0853021F4F3
:100250008A818093E80071C0863009F04CC08B81A0
:10026000813019F483E690E01DC0823049F481E4C6
:1002700090E09093E6008093E50090EC82E25FC00E
:10028000833019F58A81811109C083E990E0909348
:10029000E6008093E50090EC84E051C0813049F4A1
:1002A00081E890E09093E6008093E50090EC82E195
:1002B00046C0823009F03FC085E790E09093E600A9
:1002C0008093E50090EC8CE03AC0813249F483E5FC
:1002D00090E09093E6008093E50090EC89E02FC0D9
:1002E000823249F58EE190E09093E6008093E5003C
:1002F00090EC83E224C0883019F48AEE90E00AC0C2
:10030000893021F48A818093EA0017C08A3049F449
:1003100085ED90E09093E6008093E50090E881E021
:100320000EC08B3051F483EC8093D70006C0CE0111
:10033000CFDE90E804C090EC01C090E880E02F810F
:10034000211104C02E81281708F4822F9093CB002E
:100350008093B6001092E7008091B50084FF45C0FD
:100360008091B6008F3F09F440C0C82F893008F053
:10037000C8E08C1B8093B6002091CB0020FD02C00A
:10038000DBE401C0D3EC2F5F2093CB008091E5002C
:100390009091E60026FD05C0FC01ADECB0E02C2FED
:1003A0000AC0ADECB0E0FC012C2F215048F0349194
:1003B0003D933196FACF215018F031913D93FBCF08
:1003C0008C0F911D9093E6008093E5006C2F8DECCF
:1003D00090E043D084E08C0FC83019F09FEF9093E9
:1003E000B600D093CC008093B5008AE096B39670A7
:1003F00031F48150D9F71092E8001092E200C1E088
:100400008111C0E08091CA008C1729F0C11101C090
:1004100089DEC093CA00DF91CF91089585B78360CC
:1004200085BF8BB780648BBF83EC8093D700089522
:10043000A82FB92F80E090E041E050EA60956F5F0F
:1004400058F42D9138EF82279795879510F08427DF
:1004500095273F5FC8F3F3CF0895EADF8D939D930F
:100460000895A6E088279927AA9569F00197E1F3F6
:10047000B199FCCFB19BFECF81E09927A6B301963D
:1004800011F0A670D9F70895CF93CFB7CF93B19B52
:10049000FECFB19B0BC0B19B09C0B19B07C0B19B04
:1004A00005C0B19B03C0B19B01C0D5C00F92DF93C3
:1004B000C091E400DD27C551DF4F012EB19B03C081
:1004C000DF910F90E6CF2F930F931F934F932FEF52
:1004D0004F6F06B301FB20F95F933F9350E03BE081
:1004E00065C016B30126502951FDC89556B30127A2
:1004F00001FB25F92F7306B3B1F05027102711FB2C
:1005000026F906B22230F0F000C016B3012701FB35
:1005100027F90126502906B22430E8F54F772068E4
:1005200016B30000F6CF50274F7D206206B2102F81
:10053000000000C006B300265029102711FB26F941
:1005400006B2E2CF4F7B06B3206400C0DACF0126AB
:100550005029167006B269F14E7F2160012F16B343
:1005600028C0002650294D7F06B22260102F29C0D6
:10057000012650294B7F06B22460012F2DC016B3EF
:1005800001265029477F2860000006B22EC04F7E0A
:1005900006B3206130C0422706B349930026502994
:1005A000102706B24FEF11FB20F9297F16B379F21D
:1005B000167059F10126502906B2012701FB21F9D5
:1005C000237F06B371F2002650293150D0F006B2D5
:1005D000102711FB22F9277E16B351F2012650296C
:1005E000012701FB06B223F92F7C49F2000006B374
:1005F000102711FB24F90026502906B22F7939F271
:1006000070CF10E41ABF002719C03B503195C31BAF
:10061000D04010E41ABF0881033C09F10B34F9F013
:100620002091E2001981110F1213EDCF4A81441F6E
:10063000093651F10D3211F0013E29F70093E9001E
:100640003F915F914F911F910F912F91DF910F90EB
:10065000CAB7C6FD1CCFCF91CFBFCF9118950091DF
:10066000E900002369F31091E700112379F5343094
:100670007AF13093E7000093E3001091E4003BE04F
:10068000311B3093E40024C00091E7000130F4F402
:100690000AE54F7049F43091B50034FD1AC000935B
:1006A000B500CCECD0E019C03091B40034FD11C0DD
:1006B0000093B400C7EDD0E010C0052710E000C0E3
:1006C00021C0052710E0C89508BB14C03AE501C059
:1006D00032ED032EC0E0D0E032E017B31660C19ACD
:1006E00008B317BB56E020E84FEF20FF052708BBF3
:1006F000279517951C3F28F700004552B0F720FFBB
:100700000527279508BB17951C3FB8F629913A9500
:1007100061F7097F1091E800110F08BBC250D0406B
:1007200011F01093E20010E41ABF026017B3197FB2
:10073000402F497F54E05A95F1F708BB17BB48BBDF
:100740007FCF80E090E060D18F3F09F081BFB99A00
:1007500084E1E2EBF1EF3197F1F700C00000815046
:10076000C1F7B9982EE088E190E00FB6F894A8950B
:1007700081BD0FBE21BD8BE080BF8BE391E0A0E087
:10078000B0E08093C2009093C300A093C400B093E4
:10079000C50044DE789444ED842E49E4942EA12CC7
:1007A000B12CC2E0D0E054EC452E5EE0552E612C19
:1007B000712C01E010E0C12CD12C7601C39434E0FF
:1007C000332EA89514DD8091B40084FFA3C08091DE
:1007D000C2009091C300A091C400B091C5000197E0
:1007E000A105B10509F096C08091C0009091C100AB
:1007F0008435910508F03FC03091C60021E0230FF9
:1008000030FF0BC02093C6001092C8001092C900A0
:1008100062E088EC90E0C8DC7DC0FC01E05AFF4F4C
:10082000818190812093C6009093C8008093C90075
:1008300062E088EC90E0B8DC8091C0009091C1004B
:10084000FC01E05AFF4F4281442379F050E04F5FB2
:100850005F4F662757FD6095762F4093C2005093F7
:10086000C3006093C4007093C50003969093C100C9
:100870008093C0004FC08435910509F04BC0809132
:10088000C6008F5F8093C6001092C8001092C90006
:1008900062E088EC90E088DC1092C1001092C00009
:1008A0001092C6008091BE009091BF00009769F43D
:1008B0004092C2005092C3006092C4007092C50082
:1008C0001093BF000093BE0025C0019769F4809289
:1008D000C2009092C300A092C400B092C500D09311
:1008E000BF00C093BE0016C080D023E0880F991FC0
:1008F0002A95E1F7AA2797FDA095BA2F8054984230
:10090000A24FBF4F8093C2009093C300A093C40036
:10091000B093C50008B602FE54CF38BE4091BC006B
:100920005091BD004F5F5F4F5093BD004093BC009E
:1009300060E070E08091C2009091C300A091C4007B
:10094000B091C500481759076A077B0708F439CFEB
:10095000C092C200D092C300E092C400F092C500E1
:100960001092BD001092BC002ACFA0E0B0E0EAEBEC
:10097000F4E09FC0EC01688179818A819B816115D7
:1009800071058105910521F464E279ED8BE597E02D
:100990002DE133EF41E050E04DD049015A0127EA03
:1009A00031E440E050E062D069017A01C501B40150
:1009B0002CEE34EF4FEF5FEF59D089019A01D70148
:1009C000C601800F911FA21FB31FB7FF03C001977D
:1009D000A109B04888839983AA83BB839F77CDB749
:1009E000DEB7ECE082C0C1DF089587EB90E0BDDFA9
:1009F0000895A0E0B0E08093B7009093B800A09372
:100A0000B900B093BA000895E199FECF1FBA8EBB2A
:100A1000E09A99278DB30895262FE199FECF1CBA4D
:100A20001FBA8EBB2DBB0FB6F894E29AE19A0FBEA7
:100A300001960895052E97FB16F400940FD057FDEC
:100A400005D068D007FC02D046F408C05095409508
:100A5000309521953F4F4F4F5F4F0895909580956A
:100A6000709561957F4F8F4F9F4F08956894001345
:100A7000E894A0E0B0E0EEE3F5E01DC0EFEFE7F9A9
:100A800059016A015E23550FEE08FE2C87019B0178
:100A9000AC019E23990F660B762FCB015DD0CDB7AD
:100AA000DEB7EAE024C02F923F924F925F926F929E
:100AB0007F928F929F92AF92BF92CF92DF92EF92EE
:100AC000FF920F931F93CF93DF93CDB7DEB7CA1B6F
:100AD000DB0B0FB6F894DEBF0FBECDBF09942A889A
:100AE000398848885F846E847D848C849B84AA8442
:100AF000B984C884DF80EE80FD800C811B81AA81CF
:100B0000B981CE0FD11D0FB6F894DEBF0FBECDBF99
:100B1000ED010895A1E21A2EAA1BBB1BFD010DC019
:100B2000AA1FBB1FEE1FFF1FA217B307E407F5079D
:100B300020F0A21BB30BE40BF50B661F771F881F79
:100B4000991F1A9469F760957095809590959B010F
:100B5000AC01BD01CF010895DF93CF939F92A0E434
:100B60009A2E0024D001E001F00116950795F79424
:100B7000E794D794C794B794A79448F41068A20F49
:100B8000B31FC41FD51FE61FF71F081E191E220F13
:100B9000331F441F551F661F771F881F991F9A9484
:100BA00021F79D01AE01BF01C00111249F90CF919B
:080BB000DF910895F894FFCFD6
:100BB800000000081500000010000800001B0000DD
:100BC8001300000F000012000015000008000015B7
:100BD80000002C00000B0000170000170000130095
:100BE800023300003800003800001100001C00002B
:100BF8000400001100003700000600000400001780
:0C0C0800000028005A5AFF010000000004
:00000001FF
