:1000000027C61EC840C63FC63EC63DC63CC63BC608
:100010003AC639C638C637C636C635C634C60501EF
:100020000906A101050719E029E715002501750159
:1000300095088102950175082565190029658100DB
:10004000C04443424141414141414141414141411B
:100050004141414141414141414141414141414190
:100060004141414141414141414141414141414180
:100070004141414141414141414141414141414170
:100080004141414141414141414141414141414160
:100BF000414141414141414141090222000101007D
:100C0000801909040000010300000009210101000E
:100C1000012223000705810308000A1201100100C8
:100C2000000008424231E10001010200010C03759D
:100C3000004400750063006B0012037000680069D7
:100C4000006B007300680075006E00040309040067
:100C500011241FBECFE5D2E0DEBFCDBF10E0A0E67D
:100C6000B0E0E0E7F7E102C005900D92A836B107C9
:100C7000D9F720E0A8E6B0E001C01D92AD3AB20776
:100C8000E1F73BD373C5BCC9FC0184E790E09093C6
:100C9000920080939100808180768032E9F4818196
:100CA000813059F4809172008F5F809372001092AE
:100CB00074001092750082E00895823041F483E759
:100CC00090E0909392008093910081E008958A30A3
:100CD00019F483818093730080E00895DF92EF928E
:100CE000FF920F931F93CF93DF93C8E0D0E0F12CD6
:100CF00080E8E82EDE2CDF0CD1BE8FD18C010433CE
:100D000089E018070CF4FD2CE6942197209791F7C1
:100D10008FEF8F0D81BFCF2DD0E0219681B790E06E
:100D2000C817D9078CF079D18453994097FF03C035
:100D30009195819591098017910714F4F1B68C0172
:100D400081B78F5F81BFEACFF1BE61B780E090E0ED
:100D5000DF91CF911F910F91FF90EF90DF9038C4FA
:100D6000CF93C62F2091600024FF0BC020918300F9
:100D700038E8232720938300FC01A4E8B0E08C2FFF
:100D800004C02AE520936000F7CF815018F09191BC
:100D90009D93FBCF6C2F84E890E03BD1CC5FC09358
:100DA0006000CF910895CF93DF9380919300181640
:100DB0000CF0AEC09091900020918F002D3219F070
:100DC00090E880E09FC02AE5209361008B30C1F756
:100DD000CCE0D0E0C91BD109C956DF4F88818076AD
:100DE00009F081C010928100898181110BC010929D
:100DF000820081E890E0909392008093910090E8C7
:100E000082E079C0853021F48A818093940071C09A
:100E1000863009F04CC08B81813019F48BE19CE065
:100E20001DC0823049F489EF9BE09093920080933B
:100E3000910090EC82E25FC0833019F58A818111C4
:100E400009C08BE49CE0909392008093910090EC19
:100E500084E051C0813049F489E39CE09093920092
:100E60008093910090EC82E146C0823009F03FC04F
:100E70008DE29CE0909392008093910090EC8CE046
:100E80003AC0813249F48BE09CE0909392008093C9
:100E9000910090EC89E02FC0823249F58EE190E01C
:100EA000909392008093910090EC83E224C088306C
:100EB00019F486E990E00AC0893021F48A81809390
:100EC000960017C08A3049F481E890E09093920030
:100ED0008093910090E881E00EC08B3051F483EC58
:100EE0008093830006C0CE01CFDE90E804C090EC72
:100EF00001C090E880E02F81211104C02E812817C5
:100F000008F4822F909377008093620010929300F0
:100F10008091610084FF45C0809162008F3F09F499
:100F200040C0C82F893008F0C8E08C1B8093620055
:100F30002091770020FD02C0DBE401C0D3EC2F5FDD
:100F400020937700809191009091920026FD05C03A
:100F5000FC01A9E7B0E02C2F0AC0A9E7B0E0FC0132
:100F60002C2F215048F034913D933196FACF2150E7
:100F700018F031913D93FBCF8C0F911D909392000F
:100F8000809391006C2F89E790E043D084E08C0F30
:100F9000C83019F09FEF90936200D093780080934F
:100FA00061008AE096B3967031F48150D9F71092BF
:100FB000940010928E00C1E08111C0E08091760013
:100FC0008C1729F0C11101C089DEC0937600DF9132
:100FD000CF91089585B7836085BF8BB780648BBF41
:100FE00083EC809383000895A82FB92F80E090E0D0
:100FF00041E050EA60956F5F58F42D9138EF8227F9
:101000009795879510F0842795273F5FC8F3F3CF16
:101010000895EADF8D939D930895A6E08827992788
:10102000AA9569F00197E1F3B199FCCFB19BFECF8E
:1010300081E09927A6B3019611F0A670D9F708951B
:10104000CF93CFB7CF93B19BFECFB19B0BC0B19BDA
:1010500009C0B19B07C0B19B05C0B19B03C0B19B48
:1010600001C0D5C00F92DF93C0919000DD27C95613
:10107000DF4F012EB19B03C0DF910F90E6CF2F937E
:101080000F931F934F932FEF4F6F06B301FB20F980
:101090005F933F9350E03BE065C016B301265029B3
:1010A00051FDC89556B3012701FB25F92F7306B3EF
:1010B000B1F05027102711FB26F906B22230F0F0CC
:1010C00000C016B3012701FB27F90126502906B2FB
:1010D0002430E8F54F77206816B30000F6CF50278C
:1010E0004F7D206206B2102F000000C006B300261C
:1010F0005029102711FB26F906B2E2CF4F7B06B329
:10110000206400C0DACF01265029167006B269F1BA
:101110004E7F2160012F16B328C0002650294D7F35
:1011200006B22260102F29C0012650294B7F06B23B
:101130002460012F2DC016B301265029477F286057
:10114000000006B22EC04F7E06B3206130C0422799
:1011500006B3499300265029102706B24FEF11FB22
:1011600020F9297F16B379F2167059F1012650291A
:1011700006B2012701FB21F9237F06B371F2002695
:1011800050293150D0F006B2102711FB22F9277EEA
:1011900016B351F201265029012701FB06B223F9AB
:1011A0002F7C49F2000006B3102711FB24F900261A
:1011B000502906B22F7939F270CF10E41ABF0027F8
:1011C00019C03B503195C31BD04010E41ABF0881B1
:1011D000033C09F10B34F9F020918E001981110FB5
:1011E0001213EDCF4A81441F093651F10D3211F02F
:1011F000013E29F7009395003F915F914F911F9118
:101200000F912F91DF910F90CAB7C6FD1CCFCF91E0
:10121000CFBFCF91189500919500002369F31091ED
:101220009300112379F534307AF1309393000093D1
:101230008F00109190003BE0311B3093900024C050
:10124000009193000130F4F40AE54F7049F43091B5
:10125000610034FD1AC000936100C8E7D0E019C0F6
:101260003091600034FD11C000936000C3E8D0E00D
:1012700010C0052710E000C021C0052710E0C89568
:1012800008BB14C03AE501C032ED032EC0E0D0E047
:1012900032E017B31660C19A08B317BB56E020E8D6
:1012A0004FEF20FF052708BB279517951C3F28F710
:1012B00000004552B0F720FF0527279508BB17957A
:1012C0001C3FB8F629913A9561F7097F1091940077
:1012D000110F08BBC250D04011F010938E0010E4E3
:1012E0001ABF026017B3197F402F497F54E05A9507
:1012F000F1F708BB17BB48BB7FCF80E090E060D11F
:101300008F3F09F081BFB99A84E1E2EBF1EF3197A9
:10131000F1F700C000008150C1F7B9982EE088E1D4
:1013200090E00FB6F894A89581BD0FBE21BD8BE06B
:1013300080BF8BE391E0A0E0B0E080936E009093DB
:101340006F00A0937000B093710044DE789444ED78
:10135000842E49E4942EA12CB12CC2E0D0E054ECB0
:10136000452E5EE0552E612C712C01E010E0C12C61
:10137000D12C7601C39434E0332EA89514DD8091EE
:10138000600084FFA3C080916E0090916F00A091D7
:101390007000B09171000197A105B10509F096C0E8
:1013A00080916C0090916D00FC01EF5BFF4F3491D8
:1013B000FC01EE5BFF4F2491FC01ED5BFF4F24909D
:1013C00080917200313409F050C0213409F04DC0D1
:1013D000F1E42F124AC08F5F809372001092740064
:1013E0001092750062E084E790E0BADC10926D0024
:1013F00010926C001092720080916A0090916B00C4
:10140000009769F440926E0050926F0060927000F5
:101410007092710010936B0000936A0057C001979F
:1014200069F480926E0090926F00A0927000B0926A
:101430007100D0936B00C0936A0048C0B2D023E023
:10144000880F991F2A95E1F7AA2797FDA095BA2F33
:1014500080549842A24FBF4F80936E0090936F00CC
:10146000A0937000B093710031C091E0980F9093F9
:10147000720080FF09C0109274001092750062E043
:1014800084E790E06DDC22C03093740020937500F7
:1014900062E084E790E064DC222079F0822D90E025
:1014A0000196AA2797FDA095BA2F80936E0090937E
:1014B0006F00A0937000B093710080916C009091C8
:1014C0006D00039690936D0080936C0008B602FE49
:1014D00054CF38BE40916800509169004F5F5F4F14
:1014E000509369004093680060E070E080916E0066
:1014F00090916F00A0917000B0917100481759074A
:101500006A077B0708F439CFC0926E00D0926F0053
:10151000E0927000F09271001092690010926800E1
:101520002ACFA0E0B0E0E6E9FAE09FC0EC016881D4
:1015300079818A819B81611571058105910521F46D
:1015400064E279ED8BE597E02DE133EF41E050E087
:101550004DD049015A0127EA31E440E050E062D021
:1015600069017A01C501B4012CEE34EF4FEF5FEF52
:1015700059D089019A01D701C601800F911FA21F7E
:10158000B31FB7FF03C00197A109B04888839983AF
:10159000AA83BB839F77CDB7DEB7ECE082C0C1DF03
:1015A000089583E690E0BDDF0895A0E0B0E0809369
:1015B000630090936400A0936500B0936600089563
:1015C000E199FECF9FBB8EBBE09A99278DB308951A
:1015D000262FE199FECF1CBA9FBB8EBB2DBB0FB649
:1015E000F894E29AE19A0FBE01960895052E97FBB2
:1015F00016F400940FD057FD05D068D007FC02D038
:1016000046F408C050954095309521953F4F4F4F77
:101610005F4F089590958095709561957F4F8F4F9E
:101620009F4F089568940013E894A0E0B0E0EAE1C9
:10163000FBE01DC0EFEFE7F959016A015E23550F8A
:10164000EE08FE2C87019B01AC019E23990F660BCF
:10165000762FCB015DD0CDB7DEB7EAE024C02F9264
:101660003F924F925F926F927F928F929F92AF9232
:10167000BF92CF92DF92EF92FF920F931F93CF937F
:10168000DF93CDB7DEB7CA1BDB0B0FB6F894DEBF16
:101690000FBECDBF09942A88398848885F846E843C
:1016A0007D848C849B84AA84B984C884DF80EE8086
:1016B000FD800C811B81AA81B981CE0FD11D0FB68F
:1016C000F894DEBF0FBECDBFED010895A1E21A2E42
:1016D000AA1BBB1BFD010DC0AA1FBB1FEE1FFF1FD6
:1016E000A217B307E407F50720F0A21BB30BE40B26
:1016F000F50B661F771F881F991F1A9469F760956D
:101700007095809590959B01AC01BD01CF01089526
:10171000DF93CF939F92A0E49A2E0024D001E001A2
:10172000F00116950795F794E794D794C794B7946A
:10173000A79448F41068A20FB31FC41FD51FE61F5B
:10174000F71F081E191E220F331F441F551F661F47
:10175000771F881F991F9A9421F79D01AE01BF0141
:10176000C00111249F90CF91DF910895F894FFCF8D
:081770005A5AFF0100000000BD
:00000001FF
