:1000000027C61EC840C63FC63EC63DC63CC63BC608
:100010003AC639C638C637C636C635C634C60501EF
:100020000906A101050719E029E715002501750159
:1000300095088102950175082565190029658100DB
:10004000C0000000081500000010000800001B00A0
:10005000001300000F00001200001500000800004F
:100060001500002C00000B00001700001700001303
:1000700000023300003800003800001100001C00AE
:10008000000400001100003700000600000400001A
:100090001700002800414141414141414141414156
:1000A0004141414141414141414141414141414140
:1000B0004141414141414141414141414141414130
:1000C0004141414141414141414141414141414120
:1000D0004141414141414141414141414141414110
:100BF000414141414141414141090222000101007D
:100C0000801909040000010300000009210101000E
:100C1000012223000705810308000A1201100100C8
:100C2000000008424231E10001010200010C03759D
:100C3000004400750063006B0012037000680069D7
:100C4000006B007300680075006E00040309040067
:100C500011241FBECFE5D2E0DEBFCDBF10E0A0E67D
:100C6000B0E0E4E7F7E102C005900D92AA36B107C3
:100C7000D9F720E0AAE6B0E001C01D92AF3AB20772
:100C8000E1F73BD375C5BCC9FC0186E790E09093C2
:100C9000940080939300808180768032E9F4818192
:100CA000813059F4809174008F5F809374001092AA
:100CB00076001092770082E00895823041F485E753
:100CC00090E0909394008093930081E008958A309F
:100CD00019F483818093750080E00895DF92EF928C
:100CE000FF920F931F93CF93DF93C8E0D0E0F12CD6
:100CF00080E8E82EDE2CDF0CD1BE8FD18C010433CE
:100D000089E018070CF4FD2CE6942197209791F7C1
:100D10008FEF8F0D81BFCF2DD0E0219681B790E06E
:100D2000C817D9078CF079D18453994097FF03C035
:100D30009195819591098017910714F4F1B68C0172
:100D400081B78F5F81BFEACFF1BE61B780E090E0ED
:100D5000DF91CF911F910F91FF90EF90DF903AC4F8
:100D6000CF93C62F2091600024FF0BC020918500F7
:100D700038E8232720938500FC01A6E8B0E08C2FFB
:100D800004C02AE520936000F7CF815018F09191BC
:100D90009D93FBCF6C2F86E890E03BD1CC5FC09356
:100DA0006000CF910895CF93DF938091950018163E
:100DB0000CF0AEC090919200209191002D3219F06C
:100DC00090E880E09FC02AE5209361008B30C1F756
:100DD000CCE0D0E0C91BD109C756DF4F88818076AF
:100DE00009F081C010928300898181110BC010929B
:100DF000840083E890E0909394008093930090E8BF
:100E000082E079C0853021F48A818093960071C098
:100E1000863009F04CC08B81813019F48BE19CE065
:100E20001DC0823049F489EF9BE090939400809339
:100E3000930090EC82E25FC0833019F58A818111C2
:100E400009C08BE49CE0909394008093930090EC15
:100E500084E051C0813049F489E39CE09093940090
:100E60008093930090EC82E146C0823009F03FC04D
:100E70008DE29CE0909394008093930090EC8CE042
:100E80003AC0813249F48BE09CE0909394008093C7
:100E9000930090EC89E02FC0823249F58EE190E01A
:100EA000909394008093930090EC83E224C0883068
:100EB00019F488E990E00AC0893021F48A8180938E
:100EC000980017C08A3049F483E890E0909394002A
:100ED0008093930090E881E00EC08B3051F483EC56
:100EE0008093850006C0CE01CFDE90E804C090EC70
:100EF00001C090E880E02F81211104C02E812817C5
:100F000008F4822F909379008093620010929500EC
:100F10008091610084FF45C0809162008F3F09F499
:100F200040C0C82F893008F0C8E08C1B8093620055
:100F30002091790020FD02C0DBE401C0D3EC2F5FDB
:100F400020937900809193009091940026FD05C034
:100F5000FC01ABE7B0E02C2F0AC0ABE7B0E0FC012E
:100F60002C2F215048F034913D933196FACF2150E7
:100F700018F031913D93FBCF8C0F911D909394000D
:100F8000809393006C2F8BE790E043D084E08C0F2C
:100F9000C83019F09FEF90936200D0937A0080934D
:100FA00061008AE096B3967031F48150D9F71092BF
:100FB000960010929000C1E08111C0E0809178000D
:100FC0008C1729F0C11101C089DEC0937800DF9130
:100FD000CF91089585B7836085BF8BB780648BBF41
:100FE00083EC809385000895A82FB92F80E090E0CE
:100FF00041E050EA60956F5F58F42D9138EF8227F9
:101000009795879510F0842795273F5FC8F3F3CF16
:101010000895EADF8D939D930895A6E08827992788
:10102000AA9569F00197E1F3B199FCCFB19BFECF8E
:1010300081E09927A6B3019611F0A670D9F708951B
:10104000CF93CFB7CF93B19BFECFB19B0BC0B19BDA
:1010500009C0B19B07C0B19B05C0B19B03C0B19B48
:1010600001C0D5C00F92DF93C0919200DD27C75613
:10107000DF4F012EB19B03C0DF910F90E6CF2F937E
:101080000F931F934F932FEF4F6F06B301FB20F980
:101090005F933F9350E03BE065C016B301265029B3
:1010A00051FDC89556B3012701FB25F92F7306B3EF
:1010B000B1F05027102711FB26F906B22230F0F0CC
:1010C00000C016B3012701FB27F90126502906B2FB
:1010D0002430E8F54F77206816B30000F6CF50278C
:1010E0004F7D206206B2102F000000C006B300261C
:1010F0005029102711FB26F906B2E2CF4F7B06B329
:10110000206400C0DACF01265029167006B269F1BA
:101110004E7F2160012F16B328C0002650294D7F35
:1011200006B22260102F29C0012650294B7F06B23B
:101130002460012F2DC016B301265029477F286057
:10114000000006B22EC04F7E06B3206130C0422799
:1011500006B3499300265029102706B24FEF11FB22
:1011600020F9297F16B379F2167059F1012650291A
:1011700006B2012701FB21F9237F06B371F2002695
:1011800050293150D0F006B2102711FB22F9277EEA
:1011900016B351F201265029012701FB06B223F9AB
:1011A0002F7C49F2000006B3102711FB24F900261A
:1011B000502906B22F7939F270CF10E41ABF0027F8
:1011C00019C03B503195C31BD04010E41ABF0881B1
:1011D000033C09F10B34F9F0209190001981110FB3
:1011E0001213EDCF4A81441F093651F10D3211F02F
:1011F000013E29F7009397003F915F914F911F9116
:101200000F912F91DF910F90CAB7C6FD1CCFCF91E0
:10121000CFBFCF91189500919700002369F31091EB
:101220009500112379F534307AF1309395000093CD
:101230009100109192003BE0311B3093920024C04A
:10124000009195000130F4F40AE54F7049F43091B3
:10125000610034FD1AC000936100CAE7D0E019C0F4
:101260003091600034FD11C000936000C5E8D0E00B
:1012700010C0052710E000C021C0052710E0C89568
:1012800008BB14C03AE501C032ED032EC0E0D0E047
:1012900032E017B31660C19A08B317BB56E020E8D6
:1012A0004FEF20FF052708BB279517951C3F28F710
:1012B00000004552B0F720FF0527279508BB17957A
:1012C0001C3FB8F629913A9561F7097F1091960075
:1012D000110F08BBC250D04011F01093900010E4E1
:1012E0001ABF026017B3197F402F497F54E05A9507
:1012F000F1F708BB17BB48BB7FCF80E090E062D11D
:101300008F3F09F081BFB99A84E1E2EBF1EF3197A9
:10131000F1F700C000008150C1F7B9982EE088E1D4
:1013200090E00FB6F894A89581BD0FBE21BD8BE06B
:1013300080BF8BE391E0A0E0B0E0809370009093D9
:101340007100A0937200B093730044DE789444ED72
:10135000842E49E4942EA12CB12CC2E0D0E054ECB0
:10136000452E5EE0552E612C712C01E010E0C12C61
:10137000D12C7601C39434E0332EA89514DD8091EE
:10138000600084FFA5C08091700090917100A091D1
:101390007200B09173000197A105B10509F098C0E2
:1013A00080916E0090916F008939F9E99F0708F0EC
:1013B00040C0FC01EF5BFF4F3491FC01EE5BFF4F3F
:1013C0002491FC01ED5BFF4F24909091740081E02B
:1013D000890F8093740090FF09C0109276001092DC
:1013E000770062E086E790E0BBDC72C03093760065
:1013F0002093770062E086E790E0B2DC222079F06B
:10140000822D90E00196AA2797FDA095BA2F809390
:10141000700090937100A0937200B093730080915C
:101420006E0090916F00039690936F0080936E0012
:101430004FC08939994909F04BC0809174008F5F82
:1014400080937400109276001092770062E086E735
:1014500090E086DC10926F0010926E001092740083
:1014600080916C0090916D00009769F4409270003B
:1014700050927100609272007092730010936D0030
:1014800000936C0025C0019769F4809270009092DF
:101490007100A0927200B0927300D0936D00C0935F
:1014A0006C0016C080D023E0880F991F2A95E1F7C1
:1014B000AA2797FDA095BA2F80549842A24FBF4FFC
:1014C0008093700090937100A0937200B0937300AA
:1014D00008B602FE52CF38BE40916A0050916B00B0
:1014E0004F5F5F4F50936B0040936A0060E070E085
:1014F0008091700090917100A0917200B091730082
:10150000481759076A077B0708F437CFC092700065
:10151000D0927100E0927200F092730010926B0012
:1015200010926A0028CFA0E0B0E0E8E9FAE09FC09E
:10153000EC01688179818A819B8161157105810542
:10154000910521F464E279ED8BE597E02DE133EF2D
:1015500041E050E04DD049015A0127EA31E440E032
:1015600050E062D069017A01C501B4012CEE34EF7C
:101570004FEF5FEF59D089019A01D701C601800F63
:10158000911FA21FB31FB7FF03C00197A109B04865
:1015900088839983AA83BB839F77CDB7DEB7ECE0BE
:1015A00082C0C1DF089583E690E0BDDF0895A0E02A
:1015B000B0E08093630090936400A0936500B093C3
:1015C00066000895E199FECF9FBB8EBBE09A9927F4
:1015D0008DB30895262FE199FECF1CBA9FBB8EBB19
:1015E0002DBB0FB6F894E29AE19A0FBE01960895CA
:1015F000052E97FB16F400940FD057FD05D068D048
:1016000007FC02D046F408C05095409530952195CE
:101610003F4F4F4F5F4F089590958095709561951E
:101620007F4F8F4F9F4F089568940013E894A0E078
:10163000B0E0ECE1FBE01DC0EFEFE7F959016A0112
:101640005E23550FEE08FE2C87019B01AC019E2303
:10165000990F660B762FCB015DD0CDB7DEB7EAE0F0
:1016600024C02F923F924F925F926F927F928F92FF
:101670009F92AF92BF92CF92DF92EF92FF920F9321
:101680001F93CF93DF93CDB7DEB7CA1BDB0B0FB62B
:10169000F894DEBF0FBECDBF09942A8839884888E8
:1016A0005F846E847D848C849B84AA84B984C8847E
:1016B000DF80EE80FD800C811B81AA81B981CE0F75
:1016C000D11D0FB6F894DEBF0FBECDBFED0108955A
:1016D000A1E21A2EAA1BBB1BFD010DC0AA1FBB1F36
:1016E000EE1FFF1FA217B307E407F50720F0A21BA8
:1016F000B30BE40BF50B661F771F881F991F1A9415
:1017000069F760957095809590959B01AC01BD013E
:10171000CF010895DF93CF939F92A0E49A2E0024E7
:10172000D001E001F00116950795F794E794D7945E
:10173000C794B794A79448F41068A20FB31FC41FAE
:10174000D51FE61FF71F081E191E220F331F441F47
:10175000551F661F771F881F991F9A9421F79D01B7
:10176000AE01BF01C00111249F90CF91DF91089578
:0E177000F894FFCF5A5AFF0100000054000009
:00000001FF
